:020000040800F2
:1000000000000220070200080102000801020008A7
:1000100001020008010200080102000800000000BF
:1000200000000000000000000000000001020008C5
:10003000010200080000000001020008010200089F
:100040000102000801020008010200080102000884
:100050000102000801020008010200080102000874
:100060000102000801020008010200080102000864
:100070000102000801020008010200080102000854
:10008000010200080102000801020008000000004F
:100090000000000000000000000000000102000855
:1000A0000102000801020008010200080102000824
:1000B0000102000801020008010200080102000814
:1000C0000102000801020008010200080102000804
:1000D00001020008010200080102000800000000FF
:1000E00001020008010200080102000800000000EF
:1000F00000000000000000000000000001020008F5
:1001000000000000010200080102000801020008CE
:1001100000000000000000000000000000000000DF
:1001200001020008010200080102000801020008A3
:1001300001020008000000000000000000000000B4
:1001400000000000000000000000000001020008A4
:100150000102000801020008010200080102000873
:100160000102000801020008000000000000000079
:10017000000000000000000000000000000000007F
:10018000000000000000000000000000000000006F
:10019000010200080102000880B500AF0A4B1B688D
:1001A000094A43F008031360084B1B68074A43F0F1
:1001B000AA431360064B1B68054A83F4704313601F
:1001C000044800F009F8F5E730380240000C02401E
:1001D000140C024040420F0080B485B000AF78603C
:1001E0000023FB6002E0FB680133FB60FA687B6878
:1001F0009A42F8DB00BF00BF1437BD4680BC704791
:1002000080B400AFFEE780B586B000AF1B4A1C4B40
:10021000D31A7B601A4B7B611A4B3B610023FB6056
:100220000CE03B691A787B691A707B6901337B614A
:100230003B6901333B61FB680133FB60FB687A6813
:100240009A42EED8104A114BD31A7B600F4B7B6158
:100250000023BB6008E07B6900221A707B690133D0
:100260007B61BB680133BB60BB687A689A42F2D895
:10027000FFF792FF00BF1837BD4680BD1000002079
:100280000000002094020008600000201000002000
:040290000200000068
:1002940016000000FFFFFF0F18000000FFFF2202FE
:0400000508000207E6
:00000001FF
